{
  "contractName": "MetacoinSale",
  "abi": [
    {
      "inputs": [
        {
          "internalType": "contract Metacoin",
          "name": "_tokenContract",
          "type": "address"
        },
        {
          "internalType": "uint256",
          "name": "_initialPrice",
          "type": "uint256"
        }
      ],
      "stateMutability": "nonpayable",
      "type": "constructor"
    },
    {
      "anonymous": false,
      "inputs": [
        {
          "indexed": true,
          "internalType": "address",
          "name": "_buyer",
          "type": "address"
        },
        {
          "indexed": true,
          "internalType": "uint256",
          "name": "_amount",
          "type": "uint256"
        }
      ],
      "name": "Sell",
      "type": "event"
    },
    {
      "inputs": [],
      "name": "tokenContract",
      "outputs": [
        {
          "internalType": "contract Metacoin",
          "name": "",
          "type": "address"
        }
      ],
      "stateMutability": "view",
      "type": "function",
      "constant": true
    },
    {
      "inputs": [],
      "name": "tokenPrice",
      "outputs": [
        {
          "internalType": "uint256",
          "name": "",
          "type": "uint256"
        }
      ],
      "stateMutability": "view",
      "type": "function",
      "constant": true
    },
    {
      "inputs": [],
      "name": "tokenSold",
      "outputs": [
        {
          "internalType": "uint256",
          "name": "",
          "type": "uint256"
        }
      ],
      "stateMutability": "view",
      "type": "function",
      "constant": true
    },
    {
      "inputs": [
        {
          "internalType": "uint256",
          "name": "_amount",
          "type": "uint256"
        }
      ],
      "name": "buyTokens",
      "outputs": [],
      "stateMutability": "payable",
      "type": "function",
      "payable": true
    },
    {
      "inputs": [],
      "name": "endSale",
      "outputs": [],
      "stateMutability": "nonpayable",
      "type": "function"
    }
  ],
  "bytecode": "0x608060405234801561001057600080fd5b50604051610a91380380610a918339818101604052810190610032919061016c565b336000806101000a81548173ffffffffffffffffffffffffffffffffffffffff021916908373ffffffffffffffffffffffffffffffffffffffff16021790555081600160006101000a81548173ffffffffffffffffffffffffffffffffffffffff021916908373ffffffffffffffffffffffffffffffffffffffff1602179055508060028190555050506101ac565b600080fd5b600073ffffffffffffffffffffffffffffffffffffffff82169050919050565b60006100f1826100c6565b9050919050565b6000610103826100e6565b9050919050565b610113816100f8565b811461011e57600080fd5b50565b6000815190506101308161010a565b92915050565b6000819050919050565b61014981610136565b811461015457600080fd5b50565b60008151905061016681610140565b92915050565b60008060408385031215610183576101826100c1565b5b600061019185828601610121565b92505060206101a285828601610157565b9150509250929050565b6108d6806101bb6000396000f3fe60806040526004361061004a5760003560e01c80633610724e1461004f578063380d831b1461006b578063519ee19e1461008257806355a373d6146100ad5780637ff9b596146100d8575b600080fd5b61006960048036038101906100649190610564565b610103565b005b34801561007757600080fd5b506100806102cb565b005b34801561008e57600080fd5b506100976104c0565b6040516100a491906105a0565b60405180910390f35b3480156100b957600080fd5b506100c26104c6565b6040516100cf919061063a565b60405180910390f35b3480156100e457600080fd5b506100ed6104ec565b6040516100fa91906105a0565b60405180910390f35b61010f816002546104f2565b341461011a57600080fd5b80600160009054906101000a900473ffffffffffffffffffffffffffffffffffffffff1673ffffffffffffffffffffffffffffffffffffffff166370a08231306040518263ffffffff1660e01b81526004016101769190610676565b602060405180830381865afa158015610193573d6000803e3d6000fd5b505050506040513d601f19601f820116820180604052508101906101b791906106a6565b10156101c257600080fd5b600160009054906101000a900473ffffffffffffffffffffffffffffffffffffffff1673ffffffffffffffffffffffffffffffffffffffff1663a9059cbb33836040518363ffffffff1660e01b815260040161021f9291906106d3565b6020604051808303816000875af115801561023e573d6000803e3d6000fd5b505050506040513d601f19601f820116820180604052508101906102629190610734565b61026b57600080fd5b806003600082825461027d9190610790565b92505081905550803373ffffffffffffffffffffffffffffffffffffffff167f5e5e995ce3133561afceaa51a9a154d5db228cd7525d34df5185582c18d3df0960405160405180910390a350565b60008054906101000a900473ffffffffffffffffffffffffffffffffffffffff1673ffffffffffffffffffffffffffffffffffffffff163373ffffffffffffffffffffffffffffffffffffffff161461032357600080fd5b600160009054906101000a900473ffffffffffffffffffffffffffffffffffffffff1673ffffffffffffffffffffffffffffffffffffffff1663a9059cbb60008054906101000a900473ffffffffffffffffffffffffffffffffffffffff16600160009054906101000a900473ffffffffffffffffffffffffffffffffffffffff1673ffffffffffffffffffffffffffffffffffffffff166370a08231306040518263ffffffff1660e01b81526004016103dd9190610676565b602060405180830381865afa1580156103fa573d6000803e3d6000fd5b505050506040513d601f19601f8201168201806040525081019061041e91906106a6565b6040518363ffffffff1660e01b815260040161043b9291906106d3565b6020604051808303816000875af115801561045a573d6000803e3d6000fd5b505050506040513d601f19601f8201168201806040525081019061047e9190610734565b61048757600080fd5b60008054906101000a900473ffffffffffffffffffffffffffffffffffffffff1673ffffffffffffffffffffffffffffffffffffffff16ff5b60035481565b600160009054906101000a900473ffffffffffffffffffffffffffffffffffffffff1681565b60025481565b60008082148061051a57508282838561050b91906107e6565b925082610518919061086f565b145b61052357600080fd5b92915050565b600080fd5b6000819050919050565b6105418161052e565b811461054c57600080fd5b50565b60008135905061055e81610538565b92915050565b60006020828403121561057a57610579610529565b5b60006105888482850161054f565b91505092915050565b61059a8161052e565b82525050565b60006020820190506105b56000830184610591565b92915050565b600073ffffffffffffffffffffffffffffffffffffffff82169050919050565b6000819050919050565b60006106006105fb6105f6846105bb565b6105db565b6105bb565b9050919050565b6000610612826105e5565b9050919050565b600061062482610607565b9050919050565b61063481610619565b82525050565b600060208201905061064f600083018461062b565b92915050565b6000610660826105bb565b9050919050565b61067081610655565b82525050565b600060208201905061068b6000830184610667565b92915050565b6000815190506106a081610538565b92915050565b6000602082840312156106bc576106bb610529565b5b60006106ca84828501610691565b91505092915050565b60006040820190506106e86000830185610667565b6106f56020830184610591565b9392505050565b60008115159050919050565b610711816106fc565b811461071c57600080fd5b50565b60008151905061072e81610708565b92915050565b60006020828403121561074a57610749610529565b5b60006107588482850161071f565b91505092915050565b7f4e487b7100000000000000000000000000000000000000000000000000000000600052601160045260246000fd5b600061079b8261052e565b91506107a68361052e565b9250827fffffffffffffffffffffffffffffffffffffffffffffffffffffffffffffffff038211156107db576107da610761565b5b828201905092915050565b60006107f18261052e565b91506107fc8361052e565b9250817fffffffffffffffffffffffffffffffffffffffffffffffffffffffffffffffff048311821515161561083557610834610761565b5b828202905092915050565b7f4e487b7100000000000000000000000000000000000000000000000000000000600052601260045260246000fd5b600061087a8261052e565b91506108858361052e565b92508261089557610894610840565b5b82820490509291505056fea26469706673582212207eb7e7a9f8758f11c42596c997f0e3056d42631af83d08bb6de0267ce620828764736f6c634300080d0033",
  "immutableReferences": {},
  "source": "pragma solidity ^0.8.13;\n\nimport \"./Metacoin.sol\";\n\ncontract MetacoinSale {\n  address private admin;\n  Metacoin public tokenContract;\n  uint256 public tokenPrice;\n  uint256 public tokenSold;\n\n  event Sell(\n    address indexed _buyer,\n    uint256 indexed _amount\n  );\n\n  constructor(Metacoin _tokenContract, uint256 _initialPrice) {\n    // assign an admin\n    admin = msg.sender;\n    // Token contract\n    tokenContract = _tokenContract;\n    // set token price\n    tokenPrice = _initialPrice;\n  }\n\n  function safeMultiply(uint256 x, uint256 y) internal pure returns (uint256 z) {\n    require(y == 0 || (z = x * y) / y == x);\n  }\n\n  function buyTokens(uint256 _amount) public payable {\n    // require that value is equal to tokens\n    require(msg.value == safeMultiply(_amount, tokenPrice));\n    // require that the contract has enough tokens\n    require(tokenContract.balanceOf(address(this)) >= _amount);\n    // require that transfer is successful\n    require(tokenContract.transfer(msg.sender, _amount));\n    // keep track of tokenSold\n    tokenSold += _amount; \n    // trigger Sell Event\n    emit Sell(msg.sender, _amount);\n  }\n\n  function endSale() public restricted {\n    // transfer remained tokens to admin\n    require(tokenContract.transfer(admin, tokenContract.balanceOf(address(this))));\n    selfdestruct(payable(admin));\n  }\n\n  modifier restricted {\n    require(msg.sender == admin);\n    _;\n  }\n}\n",
  "sourcePath": "/Users/spaceitdev/Workspace/personal-prj/metacoin/contracts/MetacoinSale.sol",
  "compiler": {
    "name": "solc",
    "version": "0.8.13+commit.abaa5c0e.Emscripten.clang"
  },
  "schemaVersion": "3.4.7",
  "updatedAt": "2022-05-08T16:10:31.929Z",
  "networkType": "ethereum",
  "devdoc": {
    "kind": "dev",
    "methods": {},
    "version": 1
  },
  "userdoc": {
    "kind": "user",
    "methods": {},
    "version": 1
  }
}