{
  "contractName": "Metacoin",
  "abi": [
    {
      "inputs": [
        {
          "internalType": "uint256",
          "name": "_initialSupply",
          "type": "uint256"
        }
      ],
      "stateMutability": "nonpayable",
      "type": "constructor"
    },
    {
      "anonymous": false,
      "inputs": [
        {
          "indexed": true,
          "internalType": "address",
          "name": "_owner",
          "type": "address"
        },
        {
          "indexed": true,
          "internalType": "address",
          "name": "_spender",
          "type": "address"
        },
        {
          "indexed": false,
          "internalType": "uint256",
          "name": "_value",
          "type": "uint256"
        }
      ],
      "name": "Approval",
      "type": "event"
    },
    {
      "anonymous": false,
      "inputs": [
        {
          "indexed": true,
          "internalType": "address",
          "name": "_from",
          "type": "address"
        },
        {
          "indexed": true,
          "internalType": "address",
          "name": "_to",
          "type": "address"
        },
        {
          "indexed": false,
          "internalType": "uint256",
          "name": "_value",
          "type": "uint256"
        }
      ],
      "name": "Transfer",
      "type": "event"
    },
    {
      "inputs": [],
      "name": "decimals",
      "outputs": [
        {
          "internalType": "uint8",
          "name": "",
          "type": "uint8"
        }
      ],
      "stateMutability": "view",
      "type": "function",
      "constant": true
    },
    {
      "inputs": [],
      "name": "name",
      "outputs": [
        {
          "internalType": "string",
          "name": "",
          "type": "string"
        }
      ],
      "stateMutability": "view",
      "type": "function",
      "constant": true
    },
    {
      "inputs": [],
      "name": "standard",
      "outputs": [
        {
          "internalType": "string",
          "name": "",
          "type": "string"
        }
      ],
      "stateMutability": "view",
      "type": "function",
      "constant": true
    },
    {
      "inputs": [],
      "name": "symbol",
      "outputs": [
        {
          "internalType": "string",
          "name": "",
          "type": "string"
        }
      ],
      "stateMutability": "view",
      "type": "function",
      "constant": true
    },
    {
      "inputs": [],
      "name": "totalSupply",
      "outputs": [
        {
          "internalType": "uint256",
          "name": "",
          "type": "uint256"
        }
      ],
      "stateMutability": "view",
      "type": "function",
      "constant": true
    },
    {
      "inputs": [
        {
          "internalType": "address",
          "name": "_owner",
          "type": "address"
        }
      ],
      "name": "balanceOf",
      "outputs": [
        {
          "internalType": "uint256",
          "name": "balance",
          "type": "uint256"
        }
      ],
      "stateMutability": "view",
      "type": "function",
      "constant": true
    },
    {
      "inputs": [
        {
          "internalType": "address",
          "name": "_to",
          "type": "address"
        },
        {
          "internalType": "uint256",
          "name": "_value",
          "type": "uint256"
        }
      ],
      "name": "transfer",
      "outputs": [
        {
          "internalType": "bool",
          "name": "success",
          "type": "bool"
        }
      ],
      "stateMutability": "nonpayable",
      "type": "function"
    },
    {
      "inputs": [
        {
          "internalType": "address",
          "name": "_from",
          "type": "address"
        },
        {
          "internalType": "address",
          "name": "_to",
          "type": "address"
        },
        {
          "internalType": "uint256",
          "name": "_value",
          "type": "uint256"
        }
      ],
      "name": "transferFrom",
      "outputs": [
        {
          "internalType": "bool",
          "name": "",
          "type": "bool"
        }
      ],
      "stateMutability": "nonpayable",
      "type": "function"
    },
    {
      "inputs": [
        {
          "internalType": "address",
          "name": "_spender",
          "type": "address"
        },
        {
          "internalType": "uint256",
          "name": "_value",
          "type": "uint256"
        }
      ],
      "name": "approve",
      "outputs": [
        {
          "internalType": "bool",
          "name": "",
          "type": "bool"
        }
      ],
      "stateMutability": "nonpayable",
      "type": "function"
    },
    {
      "inputs": [
        {
          "internalType": "address",
          "name": "_owner",
          "type": "address"
        },
        {
          "internalType": "address",
          "name": "_spender",
          "type": "address"
        }
      ],
      "name": "allowance",
      "outputs": [
        {
          "internalType": "uint256",
          "name": "",
          "type": "uint256"
        }
      ],
      "stateMutability": "view",
      "type": "function",
      "constant": true
    }
  ],
  "bytecode": "0x60806040523480156200001157600080fd5b50604051620010fc380380620010fc83398181016040528101906200003791906200027f565b6040518060400160405280600881526020017f4d657461636f756e00000000000000000000000000000000000000000000000081525060019080519060200190620000849291906200018f565b506040518060400160405280600381526020017f4d5443000000000000000000000000000000000000000000000000000000000081525060009080519060200190620000d29291906200018f565b506008600360006101000a81548160ff021916908360ff160217905550806004819055506040518060400160405280600f81526020017f4d657461636f696e2076312e302e30000000000000000000000000000000000081525060029080519060200190620001439291906200018f565b5080600560003373ffffffffffffffffffffffffffffffffffffffff1673ffffffffffffffffffffffffffffffffffffffff168152602001908152602001600020819055505062000315565b8280546200019d90620002e0565b90600052602060002090601f016020900481019282620001c157600085556200020d565b82601f10620001dc57805160ff19168380011785556200020d565b828001600101855582156200020d579182015b828111156200020c578251825591602001919060010190620001ef565b5b5090506200021c919062000220565b5090565b5b808211156200023b57600081600090555060010162000221565b5090565b600080fd5b6000819050919050565b620002598162000244565b81146200026557600080fd5b50565b60008151905062000279816200024e565b92915050565b6000602082840312156200029857620002976200023f565b5b6000620002a88482850162000268565b91505092915050565b7f4e487b7100000000000000000000000000000000000000000000000000000000600052602260045260246000fd5b60006002820490506001821680620002f957607f821691505b6020821081036200030f576200030e620002b1565b5b50919050565b610dd780620003256000396000f3fe608060405234801561001057600080fd5b506004361061009e5760003560e01c80635a3b7e42116100665780635a3b7e421461015d57806370a082311461017b57806395d89b41146101ab578063a9059cbb146101c9578063dd62ed3e146101f95761009e565b806306fdde03146100a3578063095ea7b3146100c157806318160ddd146100f157806323b872dd1461010f578063313ce5671461013f575b600080fd5b6100ab610229565b6040516100b89190610a36565b60405180910390f35b6100db60048036038101906100d69190610af1565b6102b7565b6040516100e89190610b4c565b60405180910390f35b6100f96103a9565b6040516101069190610b76565b60405180910390f35b61012960048036038101906101249190610b91565b6103af565b6040516101369190610b4c565b60405180910390f35b610147610635565b6040516101549190610c00565b60405180910390f35b610165610648565b6040516101729190610a36565b60405180910390f35b61019560048036038101906101909190610c1b565b6106d6565b6040516101a29190610b76565b60405180910390f35b6101b361071f565b6040516101c09190610a36565b60405180910390f35b6101e360048036038101906101de9190610af1565b6107ad565b6040516101f09190610b4c565b60405180910390f35b610213600480360381019061020e9190610c48565b610916565b6040516102209190610b76565b60405180910390f35b6001805461023690610cb7565b80601f016020809104026020016040519081016040528092919081815260200182805461026290610cb7565b80156102af5780601f10610284576101008083540402835291602001916102af565b820191906000526020600020905b81548152906001019060200180831161029257829003601f168201915b505050505081565b600081600660003373ffffffffffffffffffffffffffffffffffffffff1673ffffffffffffffffffffffffffffffffffffffff16815260200190815260200160002060008573ffffffffffffffffffffffffffffffffffffffff1673ffffffffffffffffffffffffffffffffffffffff168152602001908152602001600020819055508273ffffffffffffffffffffffffffffffffffffffff163373ffffffffffffffffffffffffffffffffffffffff167f8c5be1e5ebec7d5bd14f71427d1e84f3dd0314c0f7b2291e5b200ac8c7c3b925846040516103979190610b76565b60405180910390a36001905092915050565b60045481565b600081600560008673ffffffffffffffffffffffffffffffffffffffff1673ffffffffffffffffffffffffffffffffffffffff1681526020019081526020016000205410156103fd57600080fd5b600660008573ffffffffffffffffffffffffffffffffffffffff1673ffffffffffffffffffffffffffffffffffffffff16815260200190815260200160002060003373ffffffffffffffffffffffffffffffffffffffff1673ffffffffffffffffffffffffffffffffffffffff1681526020019081526020016000205482111561048657600080fd5b81600560008673ffffffffffffffffffffffffffffffffffffffff1673ffffffffffffffffffffffffffffffffffffffff16815260200190815260200160002060008282546104d59190610d17565b9250508190555081600560008573ffffffffffffffffffffffffffffffffffffffff1673ffffffffffffffffffffffffffffffffffffffff168152602001908152602001600020600082825461052b9190610d4b565b9250508190555081600660008673ffffffffffffffffffffffffffffffffffffffff1673ffffffffffffffffffffffffffffffffffffffff16815260200190815260200160002060003373ffffffffffffffffffffffffffffffffffffffff1673ffffffffffffffffffffffffffffffffffffffff16815260200190815260200160002060008282546105be9190610d17565b925050819055508273ffffffffffffffffffffffffffffffffffffffff168473ffffffffffffffffffffffffffffffffffffffff167fddf252ad1be2c89b69c2b068fc378daa952ba7f163c4a11628f55a4df523b3ef846040516106229190610b76565b60405180910390a3600190509392505050565b600360009054906101000a900460ff1681565b6002805461065590610cb7565b80601f016020809104026020016040519081016040528092919081815260200182805461068190610cb7565b80156106ce5780601f106106a3576101008083540402835291602001916106ce565b820191906000526020600020905b8154815290600101906020018083116106b157829003601f168201915b505050505081565b6000600560008373ffffffffffffffffffffffffffffffffffffffff1673ffffffffffffffffffffffffffffffffffffffff168152602001908152602001600020549050919050565b6000805461072c90610cb7565b80601f016020809104026020016040519081016040528092919081815260200182805461075890610cb7565b80156107a55780601f1061077a576101008083540402835291602001916107a5565b820191906000526020600020905b81548152906001019060200180831161078857829003601f168201915b505050505081565b600081600560003373ffffffffffffffffffffffffffffffffffffffff1673ffffffffffffffffffffffffffffffffffffffff1681526020019081526020016000205410156107fb57600080fd5b81600560003373ffffffffffffffffffffffffffffffffffffffff1673ffffffffffffffffffffffffffffffffffffffff168152602001908152602001600020600082825461084a9190610d17565b9250508190555081600560008573ffffffffffffffffffffffffffffffffffffffff1673ffffffffffffffffffffffffffffffffffffffff16815260200190815260200160002060008282546108a09190610d4b565b925050819055508273ffffffffffffffffffffffffffffffffffffffff163373ffffffffffffffffffffffffffffffffffffffff167fddf252ad1be2c89b69c2b068fc378daa952ba7f163c4a11628f55a4df523b3ef846040516109049190610b76565b60405180910390a36001905092915050565b6000600660008473ffffffffffffffffffffffffffffffffffffffff1673ffffffffffffffffffffffffffffffffffffffff16815260200190815260200160002060008373ffffffffffffffffffffffffffffffffffffffff1673ffffffffffffffffffffffffffffffffffffffff16815260200190815260200160002054905092915050565b600081519050919050565b600082825260208201905092915050565b60005b838110156109d75780820151818401526020810190506109bc565b838111156109e6576000848401525b50505050565b6000601f19601f8301169050919050565b6000610a088261099d565b610a1281856109a8565b9350610a228185602086016109b9565b610a2b816109ec565b840191505092915050565b60006020820190508181036000830152610a5081846109fd565b905092915050565b600080fd5b600073ffffffffffffffffffffffffffffffffffffffff82169050919050565b6000610a8882610a5d565b9050919050565b610a9881610a7d565b8114610aa357600080fd5b50565b600081359050610ab581610a8f565b92915050565b6000819050919050565b610ace81610abb565b8114610ad957600080fd5b50565b600081359050610aeb81610ac5565b92915050565b60008060408385031215610b0857610b07610a58565b5b6000610b1685828601610aa6565b9250506020610b2785828601610adc565b9150509250929050565b60008115159050919050565b610b4681610b31565b82525050565b6000602082019050610b616000830184610b3d565b92915050565b610b7081610abb565b82525050565b6000602082019050610b8b6000830184610b67565b92915050565b600080600060608486031215610baa57610ba9610a58565b5b6000610bb886828701610aa6565b9350506020610bc986828701610aa6565b9250506040610bda86828701610adc565b9150509250925092565b600060ff82169050919050565b610bfa81610be4565b82525050565b6000602082019050610c156000830184610bf1565b92915050565b600060208284031215610c3157610c30610a58565b5b6000610c3f84828501610aa6565b91505092915050565b60008060408385031215610c5f57610c5e610a58565b5b6000610c6d85828601610aa6565b9250506020610c7e85828601610aa6565b9150509250929050565b7f4e487b7100000000000000000000000000000000000000000000000000000000600052602260045260246000fd5b60006002820490506001821680610ccf57607f821691505b602082108103610ce257610ce1610c88565b5b50919050565b7f4e487b7100000000000000000000000000000000000000000000000000000000600052601160045260246000fd5b6000610d2282610abb565b9150610d2d83610abb565b925082821015610d4057610d3f610ce8565b5b828203905092915050565b6000610d5682610abb565b9150610d6183610abb565b9250827fffffffffffffffffffffffffffffffffffffffffffffffffffffffffffffffff03821115610d9657610d95610ce8565b5b82820190509291505056fea2646970667358221220416cfe88a6ce21914cbe6a67ec796a668ba8bc78beb22bd9bc052462ec0654bb64736f6c634300080d0033",
  "immutableReferences": {},
  "source": "pragma solidity ^0.8.13;\n\nimport \"./ERC20.sol\";\n\ncontract Metacoin is IERC20 {\n  string public symbol;\n  string public  name;\n  string public standard;\n  uint8 public decimals;\n  \n  uint public totalSupply;\n  mapping (address => uint256) private balances;\n  mapping (address => mapping (address => uint256)) private allowed; // A approves B to spend C tokens \n\n  constructor(uint _initialSupply) {\n    name = \"Metacoun\";\n    symbol = \"MTC\";\n    decimals = 8;\n    totalSupply = _initialSupply;\n    standard = \"Metacoin v1.0.0\";\n\n    balances[msg.sender] = _initialSupply;\n  }\n\n  function balanceOf(address _owner) public view returns (uint256 balance) {\n    return balances[_owner];\n  }\n\n  function transfer(address _to, uint256 _value) public returns (bool success) {\n    require(balances[msg.sender] >= _value);\n\n    balances[msg.sender] -= _value;\n    balances[_to] += _value;\n    emit Transfer(msg.sender, _to, _value);\n    return true;\n  }\n\n  function transferFrom(address _from, address _to, uint256 _value) public returns (bool) {\n    require(balances[_from] >= _value);\n    require(_value <= allowed[_from][msg.sender]);\n\n    balances[_from] -= _value;\n    balances[_to] += _value;\n    allowed[_from][msg.sender] -= _value;\n    emit Transfer(_from, _to, _value);\n    return true;\n  }\n\n  // Approve the passed address to spend the specified amount of tokens on behalf of msg.sender.\n  // I am approving _spender to spend _value amount of tokens\n  function approve(address _spender, uint256 _value) public returns (bool) {\n    allowed[msg.sender][_spender] = _value; // msg.sender allowe _spender to spend _value tokens from his account \n    emit Approval(msg.sender, _spender, _value);\n    return true;\n  }\n\n  function allowance(address _owner, address _spender) public view returns (uint256) {\n    return allowed[_owner][_spender];\n  }\n}\n",
  "sourcePath": "/Users/spaceitdev/Workspace/personal-prj/metacoin/contracts/Metacoin.sol",
  "compiler": {
    "name": "solc",
    "version": "0.8.13+commit.abaa5c0e.Emscripten.clang"
  },
  "schemaVersion": "3.4.7",
  "updatedAt": "2022-04-25T13:30:39.811Z",
  "networkType": "ethereum",
  "devdoc": {
    "kind": "dev",
    "methods": {},
    "version": 1
  },
  "userdoc": {
    "kind": "user",
    "methods": {},
    "version": 1
  }
}