{
  "contractName": "Metacoin",
  "abi": [
    {
      "inputs": [],
      "stateMutability": "nonpayable",
      "type": "constructor"
    },
    {
      "anonymous": false,
      "inputs": [
        {
          "indexed": true,
          "internalType": "address",
          "name": "_owner",
          "type": "address"
        },
        {
          "indexed": true,
          "internalType": "address",
          "name": "_spender",
          "type": "address"
        },
        {
          "indexed": false,
          "internalType": "uint256",
          "name": "_value",
          "type": "uint256"
        }
      ],
      "name": "Approval",
      "type": "event"
    },
    {
      "anonymous": false,
      "inputs": [
        {
          "indexed": true,
          "internalType": "address",
          "name": "_from",
          "type": "address"
        },
        {
          "indexed": true,
          "internalType": "address",
          "name": "_to",
          "type": "address"
        },
        {
          "indexed": false,
          "internalType": "uint256",
          "name": "_value",
          "type": "uint256"
        }
      ],
      "name": "Transfer",
      "type": "event"
    },
    {
      "inputs": [],
      "name": "_totalSupply",
      "outputs": [
        {
          "internalType": "uint256",
          "name": "",
          "type": "uint256"
        }
      ],
      "stateMutability": "view",
      "type": "function",
      "constant": true
    },
    {
      "inputs": [],
      "name": "decimals",
      "outputs": [
        {
          "internalType": "uint8",
          "name": "",
          "type": "uint8"
        }
      ],
      "stateMutability": "view",
      "type": "function",
      "constant": true
    },
    {
      "inputs": [],
      "name": "name",
      "outputs": [
        {
          "internalType": "string",
          "name": "",
          "type": "string"
        }
      ],
      "stateMutability": "view",
      "type": "function",
      "constant": true
    },
    {
      "inputs": [],
      "name": "symbol",
      "outputs": [
        {
          "internalType": "string",
          "name": "",
          "type": "string"
        }
      ],
      "stateMutability": "view",
      "type": "function",
      "constant": true
    },
    {
      "inputs": [],
      "name": "totalSupply",
      "outputs": [
        {
          "internalType": "uint256",
          "name": "",
          "type": "uint256"
        }
      ],
      "stateMutability": "view",
      "type": "function",
      "constant": true
    },
    {
      "inputs": [
        {
          "internalType": "address",
          "name": "owner",
          "type": "address"
        }
      ],
      "name": "balanceOf",
      "outputs": [
        {
          "internalType": "uint256",
          "name": "balance",
          "type": "uint256"
        }
      ],
      "stateMutability": "view",
      "type": "function",
      "constant": true
    },
    {
      "inputs": [
        {
          "internalType": "address",
          "name": "to",
          "type": "address"
        },
        {
          "internalType": "uint256",
          "name": "value",
          "type": "uint256"
        }
      ],
      "name": "transfer",
      "outputs": [
        {
          "internalType": "bool",
          "name": "success",
          "type": "bool"
        }
      ],
      "stateMutability": "nonpayable",
      "type": "function"
    },
    {
      "inputs": [
        {
          "internalType": "address",
          "name": "from",
          "type": "address"
        },
        {
          "internalType": "address",
          "name": "to",
          "type": "address"
        },
        {
          "internalType": "uint256",
          "name": "value",
          "type": "uint256"
        }
      ],
      "name": "transferFrom",
      "outputs": [
        {
          "internalType": "bool",
          "name": "",
          "type": "bool"
        }
      ],
      "stateMutability": "nonpayable",
      "type": "function"
    },
    {
      "inputs": [
        {
          "internalType": "address",
          "name": "spender",
          "type": "address"
        },
        {
          "internalType": "uint256",
          "name": "value",
          "type": "uint256"
        }
      ],
      "name": "approve",
      "outputs": [
        {
          "internalType": "bool",
          "name": "",
          "type": "bool"
        }
      ],
      "stateMutability": "nonpayable",
      "type": "function"
    },
    {
      "inputs": [
        {
          "internalType": "address",
          "name": "owner",
          "type": "address"
        },
        {
          "internalType": "address",
          "name": "spender",
          "type": "address"
        }
      ],
      "name": "allowance",
      "outputs": [
        {
          "internalType": "uint256",
          "name": "",
          "type": "uint256"
        }
      ],
      "stateMutability": "view",
      "type": "function",
      "constant": true
    }
  ],
  "bytecode": "0x60806040523480156200001157600080fd5b506040518060400160405280600881526020017f4d657461636f756e000000000000000000000000000000000000000000000000815250600190805190602001906200005f929190620000da565b506040518060400160405280600381526020017f4d5443000000000000000000000000000000000000000000000000000000000081525060009080519060200190620000ad929190620000da565b506008600260006101000a81548160ff021916908360ff160217905550620186a0600381905550620001ee565b828054620000e890620001b9565b90600052602060002090601f0160209004810192826200010c576000855562000158565b82601f106200012757805160ff191683800117855562000158565b8280016001018555821562000158579182015b82811115620001575782518255916020019190600101906200013a565b5b5090506200016791906200016b565b5090565b5b80821115620001865760008160009055506001016200016c565b5090565b7f4e487b7100000000000000000000000000000000000000000000000000000000600052602260045260246000fd5b60006002820490506001821680620001d257607f821691505b602082108103620001e857620001e76200018a565b5b50919050565b610f5280620001fe6000396000f3fe608060405234801561001057600080fd5b506004361061009e5760003560e01c80633eaaf86b116100665780633eaaf86b1461015d57806370a082311461017b57806395d89b41146101ab578063a9059cbb146101c9578063dd62ed3e146101f95761009e565b806306fdde03146100a3578063095ea7b3146100c157806318160ddd146100f157806323b872dd1461010f578063313ce5671461013f575b600080fd5b6100ab610229565b6040516100b89190610bb1565b60405180910390f35b6100db60048036038101906100d69190610c6c565b6102b7565b6040516100e89190610cc7565b60405180910390f35b6100f96103e1565b6040516101069190610cf1565b60405180910390f35b61012960048036038101906101249190610d0c565b6103eb565b6040516101369190610cc7565b60405180910390f35b61014761078f565b6040516101549190610d7b565b60405180910390f35b6101656107a2565b6040516101729190610cf1565b60405180910390f35b61019560048036038101906101909190610d96565b6107a8565b6040516101a29190610cf1565b60405180910390f35b6101b36107f1565b6040516101c09190610bb1565b60405180910390f35b6101e360048036038101906101de9190610c6c565b61087f565b6040516101f09190610cc7565b60405180910390f35b610213600480360381019061020e9190610dc3565b610a91565b6040516102209190610cf1565b60405180910390f35b6001805461023690610e32565b80601f016020809104026020016040519081016040528092919081815260200182805461026290610e32565b80156102af5780601f10610284576101008083540402835291602001916102af565b820191906000526020600020905b81548152906001019060200180831161029257829003601f168201915b505050505081565b60008073ffffffffffffffffffffffffffffffffffffffff168373ffffffffffffffffffffffffffffffffffffffff16036102f157600080fd5b81600560003373ffffffffffffffffffffffffffffffffffffffff1673ffffffffffffffffffffffffffffffffffffffff16815260200190815260200160002060008573ffffffffffffffffffffffffffffffffffffffff1673ffffffffffffffffffffffffffffffffffffffff168152602001908152602001600020819055508273ffffffffffffffffffffffffffffffffffffffff163373ffffffffffffffffffffffffffffffffffffffff167f8c5be1e5ebec7d5bd14f71427d1e84f3dd0314c0f7b2291e5b200ac8c7c3b925846040516103cf9190610cf1565b60405180910390a36001905092915050565b6000600354905090565b600081600460008673ffffffffffffffffffffffffffffffffffffffff1673ffffffffffffffffffffffffffffffffffffffff16815260200190815260200160002054101561043957600080fd5b600560008573ffffffffffffffffffffffffffffffffffffffff1673ffffffffffffffffffffffffffffffffffffffff16815260200190815260200160002060003373ffffffffffffffffffffffffffffffffffffffff1673ffffffffffffffffffffffffffffffffffffffff168152602001908152602001600020548211156104c257600080fd5b600073ffffffffffffffffffffffffffffffffffffffff168373ffffffffffffffffffffffffffffffffffffffff16036104fb57600080fd5b81600460008673ffffffffffffffffffffffffffffffffffffffff1673ffffffffffffffffffffffffffffffffffffffff168152602001908152602001600020546105469190610e92565b600460008673ffffffffffffffffffffffffffffffffffffffff1673ffffffffffffffffffffffffffffffffffffffff1681526020019081526020016000208190555081600460008573ffffffffffffffffffffffffffffffffffffffff1673ffffffffffffffffffffffffffffffffffffffff168152602001908152602001600020546105d49190610ec6565b600460008573ffffffffffffffffffffffffffffffffffffffff1673ffffffffffffffffffffffffffffffffffffffff1681526020019081526020016000208190555081600560008673ffffffffffffffffffffffffffffffffffffffff1673ffffffffffffffffffffffffffffffffffffffff16815260200190815260200160002060003373ffffffffffffffffffffffffffffffffffffffff1673ffffffffffffffffffffffffffffffffffffffff1681526020019081526020016000205461069f9190610e92565b600560008673ffffffffffffffffffffffffffffffffffffffff1673ffffffffffffffffffffffffffffffffffffffff16815260200190815260200160002060003373ffffffffffffffffffffffffffffffffffffffff1673ffffffffffffffffffffffffffffffffffffffff168152602001908152602001600020819055508273ffffffffffffffffffffffffffffffffffffffff168473ffffffffffffffffffffffffffffffffffffffff167fddf252ad1be2c89b69c2b068fc378daa952ba7f163c4a11628f55a4df523b3ef8460405161077c9190610cf1565b60405180910390a3600190509392505050565b600260009054906101000a900460ff1681565b60035481565b6000600460008373ffffffffffffffffffffffffffffffffffffffff1673ffffffffffffffffffffffffffffffffffffffff168152602001908152602001600020549050919050565b600080546107fe90610e32565b80601f016020809104026020016040519081016040528092919081815260200182805461082a90610e32565b80156108775780601f1061084c57610100808354040283529160200191610877565b820191906000526020600020905b81548152906001019060200180831161085a57829003601f168201915b505050505081565b600081600460003373ffffffffffffffffffffffffffffffffffffffff1673ffffffffffffffffffffffffffffffffffffffff1681526020019081526020016000205410156108cd57600080fd5b600073ffffffffffffffffffffffffffffffffffffffff168373ffffffffffffffffffffffffffffffffffffffff160361090657600080fd5b81600460003373ffffffffffffffffffffffffffffffffffffffff1673ffffffffffffffffffffffffffffffffffffffff168152602001908152602001600020546109519190610e92565b600460003373ffffffffffffffffffffffffffffffffffffffff1673ffffffffffffffffffffffffffffffffffffffff1681526020019081526020016000208190555081600460008573ffffffffffffffffffffffffffffffffffffffff1673ffffffffffffffffffffffffffffffffffffffff168152602001908152602001600020546109df9190610ec6565b600460008573ffffffffffffffffffffffffffffffffffffffff1673ffffffffffffffffffffffffffffffffffffffff168152602001908152602001600020819055508273ffffffffffffffffffffffffffffffffffffffff163373ffffffffffffffffffffffffffffffffffffffff167fddf252ad1be2c89b69c2b068fc378daa952ba7f163c4a11628f55a4df523b3ef84604051610a7f9190610cf1565b60405180910390a36001905092915050565b6000600560008473ffffffffffffffffffffffffffffffffffffffff1673ffffffffffffffffffffffffffffffffffffffff16815260200190815260200160002060008373ffffffffffffffffffffffffffffffffffffffff1673ffffffffffffffffffffffffffffffffffffffff16815260200190815260200160002054905092915050565b600081519050919050565b600082825260208201905092915050565b60005b83811015610b52578082015181840152602081019050610b37565b83811115610b61576000848401525b50505050565b6000601f19601f8301169050919050565b6000610b8382610b18565b610b8d8185610b23565b9350610b9d818560208601610b34565b610ba681610b67565b840191505092915050565b60006020820190508181036000830152610bcb8184610b78565b905092915050565b600080fd5b600073ffffffffffffffffffffffffffffffffffffffff82169050919050565b6000610c0382610bd8565b9050919050565b610c1381610bf8565b8114610c1e57600080fd5b50565b600081359050610c3081610c0a565b92915050565b6000819050919050565b610c4981610c36565b8114610c5457600080fd5b50565b600081359050610c6681610c40565b92915050565b60008060408385031215610c8357610c82610bd3565b5b6000610c9185828601610c21565b9250506020610ca285828601610c57565b9150509250929050565b60008115159050919050565b610cc181610cac565b82525050565b6000602082019050610cdc6000830184610cb8565b92915050565b610ceb81610c36565b82525050565b6000602082019050610d066000830184610ce2565b92915050565b600080600060608486031215610d2557610d24610bd3565b5b6000610d3386828701610c21565b9350506020610d4486828701610c21565b9250506040610d5586828701610c57565b9150509250925092565b600060ff82169050919050565b610d7581610d5f565b82525050565b6000602082019050610d906000830184610d6c565b92915050565b600060208284031215610dac57610dab610bd3565b5b6000610dba84828501610c21565b91505092915050565b60008060408385031215610dda57610dd9610bd3565b5b6000610de885828601610c21565b9250506020610df985828601610c21565b9150509250929050565b7f4e487b7100000000000000000000000000000000000000000000000000000000600052602260045260246000fd5b60006002820490506001821680610e4a57607f821691505b602082108103610e5d57610e5c610e03565b5b50919050565b7f4e487b7100000000000000000000000000000000000000000000000000000000600052601160045260246000fd5b6000610e9d82610c36565b9150610ea883610c36565b925082821015610ebb57610eba610e63565b5b828203905092915050565b6000610ed182610c36565b9150610edc83610c36565b9250827fffffffffffffffffffffffffffffffffffffffffffffffffffffffffffffffff03821115610f1157610f10610e63565b5b82820190509291505056fea26469706673582212204f174048f27ae2a68aa68d76bd57b83926ef7a1df66d77df234ed42280ccbb4e64736f6c634300080d0033",
  "immutableReferences": {},
  "source": "pragma solidity ^0.8.13;\n\nimport \"./ERC20.sol\";\n\ncontract Metacoin is IERC20 {\n  string public symbol;\n  string public  name;\n  uint8 public decimals;\n  \n    uint public _totalSupply;\n    mapping (address => uint256) private _balances;\n    mapping (address => mapping (address => uint256)) private _allowed;\n\n\n  constructor() {\n    name = \"Metacoun\";\n    symbol = \"MTC\";\n    decimals = 8;\n    _totalSupply = 100000;\n  }\n\n  function totalSupply() public view returns (uint256) {\n    return _totalSupply;\n  }\n\n  function balanceOf(address owner) public view returns (uint256 balance) {\n    return _balances[owner];\n  }\n\n  function transfer(address to, uint256 value) public returns (bool success) {\n    require(_balances[msg.sender] >= value);\n    require(to != address(0));\n\n    _balances[msg.sender] = _balances[msg.sender] - value;\n    _balances[to] = _balances[to] + value;\n    emit Transfer(msg.sender, to, value);\n    return true;\n  }\n\n  function transferFrom(address from, address to, uint256 value) public returns (bool) {\n    require(_balances[from] >= value);\n    require(value <= _allowed[from][msg.sender]);\n    require(to != address(0));\n\n    _balances[from] = _balances[from] - value;\n    _balances[to] = _balances[to] + value;\n    _allowed[from][msg.sender] = _allowed[from][msg.sender] - value;\n    emit Transfer(from, to, value);\n    return true;\n  }\n\n  // Approve the passed address to spend the specified amount of tokens on behalf of msg.sender.\n  function approve(address spender, uint256 value) public returns (bool) {\n    require(spender != address(0));\n\n    _allowed[msg.sender][spender] = value;\n    emit Approval(msg.sender, spender, value);\n    return true;\n  }\n\n  function allowance(address owner, address spender) public view returns (uint256) {\n    return _allowed[owner][spender];\n  }\n}\n",
  "sourcePath": "/Users/spaceitdev/Workspace/personal-prj/metacoin/contracts/Metacoin.sol",
  "compiler": {
    "name": "solc",
    "version": "0.8.13+commit.abaa5c0e.Emscripten.clang"
  },
  "schemaVersion": "3.4.7",
  "updatedAt": "2022-04-21T20:12:26.628Z",
  "networkType": "ethereum",
  "devdoc": {
    "kind": "dev",
    "methods": {},
    "version": 1
  },
  "userdoc": {
    "kind": "user",
    "methods": {},
    "version": 1
  }
}